:020000040000FA
:10000000100A20206D010000710100007301000042
:1000100000000000000000000000000000000000E0
:10002000000000000000000000000000750100005A
:1000300000000000000000007701000079010000CE
:100040007B010000290C00007B0100007B01000007
:100050007B0100007B0100007B0100007B010000B0
:10006000000000007B0100007B0100000000000098
:10007000000000007B0100007B0100007B0100000C
:100080007B0100007B0100007B0100007B01000080
:10009000B92900007B010000000000000000000002
:1000A0007B0100007B010000000000000000000058
:1000B0007B010000000000007B0100007B010000CC
:1000C00000F002F800F042F80CA030C808382418FC
:1000D0002D18671EA246AB4654465D46AC4201D180
:1000E00000F034F87E460F3EB6460FCC0126334270
:1000F00000D0FB1A3343A246AB461847744A0000AF
:10010000944A000000000000103A02D378C878C179
:10011000FAD8520701D330C830C101D504680C6049
:100120007047000000000000002300240025002686
:10013000103A01D378C1FBD8520700D330C100D5A3
:100140000B6070471FB51FBD10B510BD00F074FAED
:100150001146FFF7F7FF02F0B1FC00F08CFA03B490
:10016000FFF7F2FF03BC00F0E1FA00000648004789
:10017000FEE7FEE7FEE7FEE7FEE7FEE70348044989
:10018000024A044B70470000C10000001009202003
:10019000100A202010092020002203098B4273D36B
:1001A000030A8B4258D3030B8B423CD3030C8B4284
:1001B00021D312E003460B437FD4002243088B4235
:1001C00074D303098B425FD3030A8B4244D3030BDE
:1001D0008B4228D3030C8B420DD30902FF2212BAA3
:1001E000030C8B4202D31212090265D0030B8B421F
:1001F00019D300E0090AC30B8B4201D3CB03C01A09
:100200005241830B8B4201D38B03C01A5241430BE3
:100210008B4201D34B03C01A5241030B8B4201D3D3
:100220000B03C01A5241C30A8B4201D3CB02C01A3E
:100230005241830A8B4201D38B02C01A5241430AB6
:100240008B4201D34B02C01A5241030A8B4201D3A5
:100250000B02C01A5241CDD2C3098B4201D3CB014C
:10026000C01A524183098B4201D38B01C01A5241FB
:1002700043098B4201D34B01C01A524103098B42FF
:1002800001D30B01C01A5241C3088B4201D3CB00EA
:10029000C01A524183088B4201D38B00C01A5241CD
:1002A00043088B4201D34B00C01A5241411A00D27D
:1002B00001465241104670475DE0CA0F00D04942E6
:1002C000031000D3404253409C46002203098B4256
:1002D0002DD3030A8B4212D38901FC2212BA030ADE
:1002E0008B420CD3890192118B4208D38901921160
:1002F0008B4204D389013AD0921100E08909C309E5
:100300008B4201D3CB01C01A524183098B4201D3E6
:100310008B01C01A524143098B4201D34B01C01AD1
:10032000524103098B4201D30B01C01A5241C30849
:100330008B4201D3CB00C01A524183088B4201D3B8
:100340008B00C01A5241D9D243088B4201D34B00D3
:10035000C01A5241411A00D201465241104663462A
:100360005B1001D34042002B00D5494270476346E1
:100370005B1000D3404201B50449002802DC491C4F
:10038000084000E00846C046C04602BDFFFFFF7FB0
:100390007047704770470000F0B5FF252D04C6096F
:1003A000C209FF2704462E400137CB093E4348408F
:1003B0002A402B400746002A6BD0002B69D0AA4266
:1003C00067D0AB4265D0002800DA32460125ED0542
:1003D00029432C4309022002090AD21A4B0C7F241C
:1003E000E31A434C000A7C44E35C7D242404121984
:1003F00014145B00A218884201D3521C00E0400094
:1004000049420C465C4324115C43DB016415E3184C
:10041000040A5C43C502200D0C4644436419250AB6
:100420005D432303EC0C0D46654300030019EB18F4
:100430004C42A34201D35B18401CD4052018002B6A
:1004400007D05B00C91804D3401C002901D1400823
:1004500040003F2189048A4209D3002A08DC1106A2
:10046000090F04D0032149074018C00FC007F0BD91
:1004700001224100120689187F2252069142F6D2CB
:1004800005214907C84201D59010F0BDFF20C005E5
:10049000F0BD002F00DA32461648AA4207D2AB421E
:1004A00005D21902090E17D0F80FC007F0BDFF25BD
:1004B00063002D06AB42F9D84900A942F6D8AB42F9
:1004C00001D1A942F2D0A94201D1002101E061008D
:1004D0004908D0050843F0BD1102090EFBD0FF20EA
:1004E0000243D005F0BD0A460146104654E700001D
:1004F000DE2C00000000C07F10B501469E240002E3
:10050000CA15A307002A02D01843002A04DBA21A46
:10051000002A0CDDD04010BD1206120E01D14000A1
:100520004008A21A03D4D04040420028F3DDFF2245
:1005300048001206904201D9002010BDC817C043E0
:10054000584010BD0102C21504D00123DB07194336
:10055000002A0ADB9E239A1A02D40846D04070472C
:10056000FF2241001206914201D900207047C017B6
:10057000C04370471F22030C02D10F2200041CD07D
:10058000030E01D10002083A030F01D10001121F2E
:10059000830F01D18000921E002801DB4000521E13
:1005A000D2055118021251181922904004D3491C47
:1005B000002801D14908490008467047C10FC90702
:1005C00000D04042012292071143D3E7012189075D
:1005D000D0E7000010B5FF231B0644009C421DD845
:1005E0004C009C421AD80346124A0B4307D4401AC7
:1005F00002D3EFF3008010BDEFF3008010BD081AA6
:1006000003D3EFF30080904305E0EFF30080012176
:100610009043C907084380F3008810BD0D231B04D5
:100620001A4204D01146002000F02DF810BD00F051
:1006300041F810BD00000090754600F043F8AE464A
:10064000050069465346C008C000854618B020B56D
:10065000FFF794FD60BCB64600260027C0C5C0C5A4
:10066000C0C5C0C5C0C5C0C5C0C5C0C5403D49089E
:1006700049008D46704710B50446C046C046204626
:10068000FFF76DFD10BDC80212D54803400F0028CA
:1006900004D0C803C043012188407047EFF30080B5
:1006A0000001000903210907084380F3008870470F
:1006B0000020704710B5024800F008F810BD000097
:1006C0000000C07F004870470800202010B50C468D
:1006D0001107090F092904D00A290AD008290CD1C9
:1006E00004E011460820FFF7CEFF06E0510606D5CC
:1006F00001E0510601D50120C007214610BDD106F9
:1007000007D501010909CC084907000E000604437A
:1007100009E0410F20024907000A0143200E0006AC
:100720001D22D14101430846E7E700000149182096
:10073000ABBEFEE726000200704700000120010367
:100740004B4A1160C005014908607047A0320A4059
:10075000012801D9002070470C2141433C48411831
:10076000C8780022CA7070473748002101603848B5
:1007700041608160C1700322427001614161C173B7
:10078000427332490A680123134083700370096879
:100790008907C90F817301737047C04670B52A4934
:1007A00008680A300860294B1C6801221440284957
:1007B0008D78A54212D14D78022D11D86E1C4E7045
:1007C000022D0DD10D78A54225460AD00C70002CC3
:1007D00032D1002548608D60CA7001E000254D705F
:1007E0000D788C70002D02D14C68041B8C601B6846
:1007F00002241C4063088D7B9D4212D14D7B022D4B
:1008000011D86E1C4E73022D0DD10D7B9D421D46DD
:100810000AD00B73002C12D1002408614C61CA73FA
:1008200001E000224A730D7B8B73002D00D070BD58
:100830000A69801A486170BD8C700024D6E78B73FA
:100840000020486170BDC046C007202080130A40C8
:10085000A8072020B0B5034C8025256002F022F9BE
:100860002561B0BD90120A400148802101607047A7
:10087000A0120A40811E091F00BFFCD2704710B5AC
:10088000002A0FD091235B01C3180020DC692405E6
:10089000240F05D00C5C1C60401C8242F6D110462F
:1008A00080B210BD002080B210BD70B50A780C2354
:1008B0001A400124240305196E689E43B2186A6029
:1008C000497807221140035993435918015170BDCB
:1008D000F0B582B0B94A8218019211231C028B7ABA
:1008E0005B1EDEB2022E0AD85BB29B00354DED587E
:1008F0004923DB011F467743FB18761C02E00225E3
:1009000000231E4602190092CC688F2214402C430B
:10091000B50047193120C0013D58954325433D504E
:100920004868019A50600878052834D801252C467B
:100930008440092214420DD11222144217D0A84A31
:10094000BD18BA589F4E16404C7A204F012C19D131
:100950003E431FE04A7A77241440A14ABE58994A80
:10096000324012196C0416199D4ABD1812E09C4AB7
:10097000BD18BA58934E16404A7A012A08D1134A34
:10098000521C06E0772214402643FF373E4301E025
:100990000D4A16432E600022009C2260C01E0328D0
:1009A00001D220200343087ABD2101401943019B55
:1009B0001868484A02400A4302201043186002B0F7
:1009C000F0BDC04608310000010202000101020032
:1009D000F0B57A4A82183B4BC31808794E793A4DE4
:1009E000784C002E23D0202804D00526F6010028BC
:1009F00003D003E0354E002800D18826576F2F40E2
:100A000037435767976F2F4037439767566B26409A
:100A10005663966B264096630026566596658F262C
:100A2000F6435F6837405F609F6837409F608E790C
:100A3000096820280BD0002819D1491E5160D76EB3
:100A40002F4088210F43D7661746703719E0491E9B
:100A50005160D16E29401D4F3943D166116F294035
:100A60003943116701214907194D174609E0490823
:100A70005160D76E2F400521C9010F43D766174635
:100A800070373C682C400C433C60D16A4D4C21408F
:100A9000D162116B214011630021D16411658F2156
:100AA000C943D46F0C40D4671C680C401C600643DB
:100AB000BD2030401168074B0B40C018801C1060EF
:100AC000F0BDC0468418000024493E000104000027
:100AD000FFFFFFCF4000FFCFB0B54A68364BC25092
:100AE000364A80180A78222A58D8930001A4E3587D
:100AF0009F46C046930B00009D0B0000930B000027
:100B00009D0B00009D0B00009D0B00009D0B000045
:100B10009D0B00009D0B00009D0B00009D0B000035
:100B20009D0B00009D0B00009D0B00009D0B000025
:100B30009D0B0000810B00009D0B0000810B00004D
:100B40009D0B00009D0B00009D0B00009D0B000005
:100B50009D0B00009D0B00009D0B00009D0B0000F5
:100B60009D0B00009D0B00009D0B00009D0B0000E5
:100B70009D0B0000810B00009D0B0000810B00000D
:100B800003231B0704689C4301235B07E3180360EE
:100B900004E003231B0704689C4304600B69C360E3
:100BA000CB68074C1C40C36A064D1D402B19C3621D
:100BB000097A11430160B0BD081800000418000054
:100BC000777702008888FDFF10B507239B04194042
:100BD00092008018024A84589C436118815010BDCD
:100BE0003018000010B5029CA400001911431943ED
:100BF000014A815010BDC046501800009200801874
:100C0000014A81507047C0461018000010B50122FB
:100C1000120383180C789C604B7883508978014AC2
:100C2000815010BD0C110000F0B581B094480068EF
:100C3000012800D18FE0022800D01FE1954800680C
:100C400081B2002900D119E18F4A64320020C043EB
:100C500000900424904D06E0701C1061A41EA03288
:100C6000002C00D103E1104650380768AF4216D17E
:100C700010464C380068084211D02720C0011646A3
:100C8000483E366830581646443E36683042009E2C
:100C900000D001261046403803689B1903601046B7
:100CA00048380068A84224D11046443806680E42ED
:100CB0001FD0AF420ED110464C380068B04209D167
:100CC000764803681746403F386833423ED0401CA0
:100CD00038600EE02720C00138581646403E37687D
:100CE00013464C3B1B68184201D0781E00E0781C6C
:100CF00030601768AF420ED1506808420BD02720F1
:100D0000C0019368D66818583042009E00D0012672
:100D10001069801910619068A8429FD1D6680E4270
:100D20009CD0AF4209D15068B04206D15B480368FD
:100D3000106933420DD0401C8FE72720C00138587E
:100D400016695368184287D0701E86E7401E3860C7
:100D5000CFE7401E81E74B48006881B2002900D1EF
:100D60008CE0DB4A64320020C04300900424474DED
:100D700005E0701C1061A41EA032002C79D0104632
:100D800050380768AF4216D110464C380068084208
:100D900011D02720C0011646483E36683058164606
:100DA000443E36683042009E00D00126104640384E
:100DB00003689B190360104648380068A84224D194
:100DC0001046443806680E421FD0AF420ED110467E
:100DD0004C380068B04209D12D4803681746403F9F
:100DE000386833423ED0401C38600EE02720C001F6
:100DF00038581646403E376813464C3B1B6818422D
:100E000001D0781E00E0781C30601768AF420ED128
:100E1000506808420BD02720C0019368D668185844
:100E20003042009E00D00126106980191061906840
:100E3000A842A0D1D6680E429DD0AF4209D15068D9
:100E4000B04206D112480368106933420DD0401CED
:100E500090E72720C001385816695368184288D097
:100E6000701E87E7401E3860CFE7401E82E7094AC0
:100E700000E0044A103210680843106001B0F0BD71
:100E80003011404038100A40CC07202000000A40B2
:100E900080130A4038300A4000200A4080330A405C
:100EA00001208105F24A11608107F24B1960106040
:100EB000022010607047C046032806D8C0000349CE
:100EC0000A5808184068024950507047FC4A000010
:100ED000B0120000F0B585B002A900200190487062
:100EE0006B200870694F02223846FFF7C8FC304D6E
:100EF0002E46083E306867490840D03030602C1FCD
:100F00002068654908402B4940182060286820283F
:100F100008D02868202805D02868202802D0286812
:100F20002028F3D10A2001F0BDFD03A901984870E3
:100F30001C20087002223846FFF7A1FC3068554992
:100F40000840D02738433060206853490840194989
:100F5000084320602868202808D02868202805D069
:100F60002868202802D028682028F3D104A90198F5
:100F700048701B20087002224448FFF780FC30684C
:100F800044490840384330602068434908400949D3
:100F9000084320602868202808D02868202805D029
:100FA0002868202802D028682028F3D105B0F0BD99
:100FB00018120F400700020070B582B001A93B2053
:100FC000087032480122FFF75AFC314802460C3AB9
:100FD0001168304C2140D03111600346083B19683C
:100FE0002D4D29402D4E89191960011F0E68202EA4
:100FF00008D00E68202E05D00E68202E02D00E6874
:10100000202EF2D116682640D124344314601A6889
:101010002A40234C14431C600A68202A08D00A681E
:10102000202A05D00A68202A02D00A68202AF3D193
:10103000016809020268D2B251181A4A1180016887
:1010400009020268D2B25118174A118001680902D8
:101050000268D2B25118154A11800168016801680E
:1010600009020268D2B25118114A118001680902BE
:101070000268D2B25118026800680E4B1980110242
:10108000C0B240180C49088002B070BD00000F408B
:101090001C120F4000F8FFFFF8FF00F007000100EE
:1010A00007000E00A0072020A2072020A407202070
:1010B000C6072020C8072020CA072020032801D9FE
:1010C0000020704750214143D0484018406A704783
:1010D000CC072020F0B58DB0F0200B90CB4E012432
:1010E0003450A0210A91002070505F4AF2665F4997
:1010F0007166102109913166F26520210891B16570
:10110000726503233365F2617261F26072600221DD
:10111000019131603546F0352146E30406936405BC
:101120004F030B46079789060C916A60A9604F49E7
:10113000E9602F616A61AC61EA610699296234460F
:10114000A034D90604918027059759020691626060
:10115000A160E2602761454961610C9AA261E16189
:101160000499216231675907B166D90231621904C5
:10117000029103933161DF03B7607D23DB000493A9
:101180001833B36134230199F1548423F15470620C
:101190007067B062F0623063B063F06330647064B3
:1011A000B064334638331875B067F0673346503350
:1011B00018639863D8631864586498643833187552
:1011C0006062D423F15449239B00F1540A46A06283
:1011D000E0622063234638331875A063E06320641F
:1011E0006064A0646862A862E8622863A863E86338
:1011F00028646864A864383528751D48076002991A
:1012000001600899016009990160069901600599DA
:1012100001600C990160174807990160824C2046D3
:10122000049D29461746FFF7E9FC5020325C204612
:101230002946FFF7E3FC0A98325C20462946FFF76F
:10124000DDFC0B98325C20462946FFF7D7FC0A48A4
:101250000168039A114301601005084908600F6096
:101260000F600DB0F0BDC04600200A4000000A40EB
:10127000A0320A40A0120A4004B8864000E100E013
:10128000F0B587B0604800787D210291C9000191D6
:1012900000245E4E0DE0F085049C327881B26248F5
:1012A000FFF7ACFC584800785036641C042C00D181
:1012B000A7E00146E140C907F6D032463432117E3C
:1012C0000029F1D003920494B06A716AB162081ADD
:1012D000FFF774F94E4C214601F036FE4D49FFF7F9
:1012E0005BF8FFF709F930632C21715E0D1AB06CC1
:1012F0000690B5642846FFF761F90146706C0591C8
:1013000001F088FD0746214601F06DFD002800D15F
:101310003C462046404F394601F070FD002800D180
:1013200027467764F06B394601F00EFE0446B06B39
:10133000059901F009FE214601F06CFD044606986E
:10134000281AFFF73BF90146306C01F0FDFD2146FC
:1013500001F060FD0546314C214601F044FD0028B6
:1013600000D12C4620462E4F394601F047FD00287B
:1013700000D127460021384601F035FD002810D065
:101380007068B168274A815095204001F168326940
:101390000A500120039908702048394601F02CFEBC
:1013A00015E000253846294601F028FD002819D00F
:1013B000952040017168B2680A50F0683169194A95
:1013C0008150039805703846144901F023FDFFF75A
:1013D00093F8C11788430299C900884200D25AE79E
:1013E000084658E7952040017168B2680A50F168D4
:1013F00032690A500199F1850220039A107008465B
:101400004AE707B0F0BDC04600002020CC072020EE
:1014100000803B450000C34400803BC500007A4487
:1014200000007AC49012000000008640F0B581B040
:10143000024806468036802702E0C0466800202029
:101440006021002272544023F25420243255327617
:10145000327432723270354660352A762A742A72B6
:10146000354640352A762A742A72354620352A7642
:101470002A742A723546083D2A703546103D2A7076
:101480003546183D2A703546203D2A703546283DA0
:101490002A703546303D2A703546383D2A7035462B
:1014A000403D2A703546483D2A703546503D2A70E9
:1014B0003546583D2A703546603D2A703546683DB0
:1014C0002A703546703D2A703546783D2A7035467B
:1014D000803D2A7001252D027619203FB0D10746A4
:1014E0008137802600937A54009BFA543A553A7615
:1014F0003A743A723A700B46394660310A760A7489
:101500000A72394640310A760A740A723946203125
:101510000A760A740A72394608390A70394610394F
:101520000A70394618390A70394620390A70394626
:1015300028390A70394630390A70394638390A7004
:10154000394640390A70394648390A7039465039A7
:101550000A70394658390A70394660390A70394676
:1015600068390A70394670390A70394678390A7014
:101570007919803F3A70203E0F461946B3D107468D
:10158000823780267A5400997A543A553A763A74DA
:101590003A723A70394660310A760A740A723946EC
:1015A00040310A760A740A72394620310A760A7482
:1015B0000A72394608390A70394610390A703946B4
:1015C00018390A70394620390A70394628390A70A4
:1015D000394630390A70394638390A703946403947
:1015E0000A70394648390A70394650390A70394606
:1015F00058390A70394660390A70394668390A70B4
:10160000394670390A70394678390A707919803F3D
:101610003A70203E0F461946B4D1074683378026DC
:101620007A5400997A543A553A763A743A723A7042
:10163000394660310A760A740A72394640310A76B0
:101640000A740A72394620310A760A740A723946D7
:1016500008390A70394610390A70394618390A7043
:10166000394620390A70394628390A7039463039E6
:101670000A70394638390A70394640390A70394695
:1016800048390A70394650390A70394658390A7053
:10169000394660390A70394668390A7039467039F6
:1016A0000A70394678390A707919803F3A70203EBD
:1016B0000F461946B4D10746843780267A540099DC
:1016C0007A543A553A763A743A723A7039466031F9
:1016D0000A760A740A72394640310A760A740A7226
:1016E000394620310A760A740A72394608390A7076
:1016F000394610390A70394618390A703946203986
:101700000A70394628390A70394630390A70394624
:1017100038390A70394640390A70394648390A70F2
:10172000394650390A70394658390A703946603995
:101730000A70394668390A70394670390A70394674
:1017400078390A707919803F3A70203E0F46194661
:10175000B4D10746853780267A5400997A543A5591
:101760003A763A743A723A70394660310A760A74B7
:101770000A72394640310A760A740A7239462031B3
:101780000A760A740A72394608390A7039461039DD
:101790000A70394618390A70394620390A703946B4
:1017A00028390A70394630390A70394638390A7092
:1017B000394640390A70394648390A703946503935
:1017C0000A70394658390A70394660390A70394604
:1017D00068390A70394670390A70394678390A70A2
:1017E0007919803F3A70203E0F461946B4D107461A
:1017F000863780267A5400997A543A553A763A7464
:101800003A723A70394660310A760A740A72394679
:1018100040310A760A740A72394620310A760A740F
:101820000A72394608390A70394610390A70394641
:1018300018390A70394620390A70394628390A7031
:10184000394630390A70394638390A7039464039D4
:101850000A70394648390A70394650390A70394693
:1018600058390A70394660390A70394668390A7041
:10187000394670390A70394678390A707919803FCB
:101880003A70203E0F461946B4D17F308026374645
:1018900082554254009942540255027602740272F3
:1018A0000270014660310A760A740A7201464031BC
:1018B0000A760A740A72014620310A760A740A729C
:1018C000014608390A70014610390A700146183974
:1018D0000A70014620390A70014628390A7001460B
:1018E00030390A70014638390A70014640390A70A9
:1018F000014648390A70014650390A700146583984
:101900000A70014660390A70014668390A7001465A
:1019100070390A70411978380270203F084619461C
:10192000B6D100F0F3FA01B0F0BD0000F0B581B01F
:10193000AE200024214600F027FD2046214600F07D
:1019400023FD1020214600F01FFD4025284621469A
:1019500000F01AFD8120214600F016FDCF2021461F
:1019600000F012FDA120214600F00EFDC820214606
:1019700000F00AFDA6200090214600F005FDA820F9
:10198000214600F001FD3F20214600F0FDFCD32060
:10199000214600F0F9FC2046214600F0F5FCD52058
:1019A000214600F0F1FC80273846214600F0ECFC8F
:1019B000D920214600F0E8FCF120214600F0E4FCAB
:1019C000DA20214600F0E0FC1220214600F0DCFC89
:1019D000DB20214600F0D8FC2846214600F0D4FC4C
:1019E00020263046214600F0CFFC0220214600F0A0
:1019F000CBFC8D20214600F0C7FC1420214600F0CE
:101A0000C3FCA420214600F0BFFC0098214600F052
:101A1000BBFC02480346803302E0C0466800202039
:101A200060215C545C559C551C761C741C721C70A7
:101A30001A4660321476147414721A4640321476C0
:101A4000147414721A4620321476147414721A46DE
:101A5000083A14701A46103A14701A46183A14705C
:101A60001A46203A14701A46283A14701A46303A28
:101A700014701A46383A14701A46403A14701A46CE
:101A8000483A14701A46503A14701A46583A14706C
:101A90001A46603A14701A46683A14701A46703A38
:101AA00014701A46783A14701A46803A147001225B
:101AB00012029B18203FB3D107468137802300963E
:101AC0007C547C55009EBC553C763C743C723C700A
:101AD0002E463D4660352C762C742C723D464035A2
:101AE0002C762C742C723D4620352C762C742C725E
:101AF0003D46083D2C703D46103D2C703D46183D3E
:101B00002C703D46203D2C703D46283D2C703D46B6
:101B1000303D2C703D46383D2C703D46403D2C708C
:101B20003D46483D2C703D46503D2C703D46583D4D
:101B30002C703D46603D2C703D46683D2C703D4606
:101B4000703D2C703D46783D2C70BD18803F3C7038
:101B5000203B2F463546B3D10746823780237C543D
:101B60007C55009D7C553C763C743C723C703D46F7
:101B700060352C762C742C723D4640352C762C74B6
:101B80002C723D4620352C762C742C723D46083D37
:101B90002C703D46103D2C703D46183D2C703D4646
:101BA000203D2C703D46283D2C703D46303D2C702C
:101BB0003D46383D2C703D46403D2C703D46483DED
:101BC0002C703D46503D2C703D46583D2C703D4696
:101BD000603D2C703D46683D2C703D46703D2C703C
:101BE0003D46783D2C70BD18803F3C70203B2F4611
:101BF0003546B4D10746833780237C547C55009DFD
:101C00007C553C763C743C723C703D4660352C768D
:101C10002C742C723D4640352C762C742C723D462B
:101C200020352C762C742C723D46083D2C703D4698
:101C3000103D2C703D46183D2C703D46203D2C70CB
:101C40003D46283D2C703D46303D2C703D46383D8C
:101C50002C703D46403D2C703D46483D2C703D4625
:101C6000503D2C703D46583D2C703D46603D2C70DB
:101C70003D46683D2C703D46703D2C703D46783D9C
:101C80002C70BD18803F3C70203B2F463546B4D1A8
:101C90000746843780237C547C55009D7C553C76D8
:101CA0003C743C723C703D4660352C762C742C7232
:101CB0003D4640352C762C742C723D4620352C76D2
:101CC0002C742C723D46083D2C703D46103D2C7006
:101CD0003D46183D2C703D46203D2C703D46283D2C
:101CE0002C703D46303D2C703D46383D2C703D46B5
:101CF000403D2C703D46483D2C703D46503D2C707B
:101D00003D46583D2C703D46603D2C703D46683D3B
:101D10002C703D46703D2C703D46783D2C70BD18B2
:101D2000803F3C70203B2F463546B4D1074685376F
:101D300080237C547C55009D7C553C763C743C72E1
:101D40003C703D4660352C762C742C723D464035F7
:101D50002C762C742C723D4620352C762C742C72EB
:101D60003D46083D2C703D46103D2C703D46183DCB
:101D70002C703D46203D2C703D46283D2C703D4644
:101D8000303D2C703D46383D2C703D46403D2C701A
:101D90003D46483D2C703D46503D2C703D46583DDB
:101DA0002C703D46603D2C703D46683D2C703D4694
:101DB000703D2C703D46783D2C70BD18803F3C70C6
:101DC000203B2F463546B4D10746863780237C54C6
:101DD0007C55009D7C553C763C743C723C703D4685
:101DE00060352C762C742C723D4640352C762C7444
:101DF0002C723D4620352C762C742C723D46083DC5
:101E00002C703D46103D2C703D46183D2C703D46D3
:101E1000203D2C703D46283D2C703D46303D2C70B9
:101E20003D46383D2C703D46403D2C703D46483D7A
:101E30002C703D46503D2C703D46583D2C703D4623
:101E4000603D2C703D46683D2C703D46703D2C70C9
:101E50003D46783D2C70BD18803F3C70203B2F469E
:101E60003546B4D17F3080231F46C4544454445572
:101E7000009D445504760474047204700546603570
:101E80002C762C742C72054640352C762C742C72D2
:101E9000054620352C762C742C720546083D2C7096
:101EA0000546103D2C700546183D2C700546203D1A
:101EB0002C700546283D2C700546303D2C7005469B
:101EC000383D2C700546403D2C700546483D2C7031
:101ED0000546503D2C700546583D2C700546603D2A
:101EE0002C700546683D2C700546703D2C70851899
:101EF00078380470203F28463546B6D100F006F801
:101F0000AF20002100F040FA01B0F0BDF0B585B07F
:101F10000120C1030491000403900020D34F0290DC
:101F20005038C0B20024214600F02EFA2046214647
:101F300000F02AFA1020214600F026FA049D3148CC
:101F40000560039E06600A24204600F0B2FD2D487D
:101F50000561204600F0ADFD2A480661204600F0EC
:101F6000A8FD782000F09CFC26480560204600F083
:101F7000A0FD24480660204600F09BFD2148066134
:101F8000204600F096FD402000F08AFC1D480560C8
:101F9000204600F08EFD1B4806600546204600F0F6
:101FA00088FD2E61204600F084FD80250197387859
:101FB00000F076FC0498134908600A24204600F0DB
:101FC00078FD039E0F480660204600F072FD0D4824
:101FD0000661204600F06DFD6D1E0837002DE6D12C
:101FE000049C084D2C61039828600A2000F061FDD4
:101FF0002C60019F7F1C0298401C08288FD105B0DF
:10200000F0BDC04690120A40F0B58BB00A91039023
:102010000620082B04460AD05C07D908002C00D003
:10202000491C5C084C43E4B2002C00D113E1109F22
:10203000203AD1B20091484388490A1858080190C3
:102040000025039E0293089709E00646079C049A20
:10205000069D641E521C6D1C002C00D1FBE0082B59
:10206000104615D0182B09D0102B0CD00C2B00D0FB
:10207000F1E00C20009948437B4907E024200099B7
:102080004843774902E00098000176490818401952
:10209000099006950492079407230A9A104618405F
:1020A0000125294681400596F0B2C0006F4C2018EA
:1020B000D2B2D408065D32460A438E43002F114641
:1020C00000D03146002F00D016460022099FBA5694
:1020D0000992D20700D0314601550A99491CCAB26B
:1020E00019402F468F40D408065D31463943BE4320
:1020F000089F002F0A4600D03246002F00D00E461F
:102100000999890700D5324602550A99891CCAB235
:1021100019402F468F40D408065D31463943BE43EF
:10212000089F002F0A4600D03246002F00D00E46EE
:102130000999490700D5324602550A99C91CCAB205
:1021400019402F468F40D408065D31463943BE43BF
:10215000089F002F0A4600D03246002F00D00E46BE
:102160000999090700D5324602550A99091DCAB2D4
:1021700019402F468F40D408065D31463943BE438F
:10218000089F002F0A4600D03246002F00D00E468E
:102190000999C90600D5324602550A99491DCAB2A5
:1021A00019402F468F40D408065D31463943BE435F
:1021B000089F002F0A4600D03246002F00D00E465E
:1021C0000999890600D5324602550A99891DCAB275
:1021D00019402F468F40D408065D31463943BE432F
:1021E000089F002F0A4600D03246002F00D00E462E
:1021F0000999490600D5324602550A99C91D0B4076
:102200009D40C9B2CC08025D1146A9431543002F79
:102210000A4600D02A46002F029B059E00D00D469C
:102220000999002900D42A460255701C082B00D1B8
:102230000BE7C1B2039A891A019A9142079C02D115
:102240000A9A08320A92049A019DA942039E00D17B
:10225000FEE60646FCE60BB0F0BDC04614310000B9
:10226000A03D0000B03700003C3300006800202093
:10227000F0B589B008910790002B58D01C46154640
:102280000E9841080690082800D1891C03910F98E8
:1022900005906042A11E01910026C0B20490254F16
:1022A00002950EE00A4602430398704307994018CE
:1022B000C0B20899069BFFF7A7FE761CF0B2A042B9
:1022C00035D2FF20B0430499884201D1012121E099
:1022D000F0430219032010400199891BC9B2032958
:1022E00001D2012108E0FC210A40002301217943A9
:1022F0001B1DDDB29542FAD10028029D0AD00128AB
:1023000001D10A2005E0022802D07D20C00000E0B3
:1023100064204143284600F06BFC0A21FDF73CFF96
:102320000598009030200029BCD10246BCE709B0D6
:10233000F0BDC04610270000F0B583B00646177800
:1023400038462038C0B25E281CD8082B01D05D0862
:1023500000E0062508980190541C02950198009011
:10236000F0B2FAB20D461F46FFF74EFE3B46294635
:10237000029D7619601C27783A46203AD2B25F2A2D
:102380000446EBD303B0F0BDF0B583B001910290E9
:102390000120C603234D2E6007042F600A24204627
:1023A00000F087FB2E61204600F083FB2F61204662
:1023B00000F07FFB782000F073FA2E60204600F0DA
:1023C00078FB2F60204600F074FB2F61204600F060
:1023D00070FB0199481E8141880100F061FA2E606E
:1023E000204600F066FB2F60204600F062FB2F6164
:1023F000204600F05EFB029800F052FA2E60204664
:1024000000F057FB2F60204600F053FB2F61204661
:1024100000F04FFB2E612F60204600F04AFB2E603B
:1024200003B0F0BD90120A40F0B5454B852018640A
:102430000122140243490C6058645002086083244E
:102440009C66150340480560DC66540304608824DC
:102450001C630424046087245C63082404603B4CF0
:10246000261D3B4CE6633B4EB71C1F60DF605706E2
:102470001D683D431D60DD683D43DD608127E765E4
:10248000DF625F672760DF639F63DF655F652766E5
:10249000A7601E665E665E606666A666E666266481
:1024A00026636760A7646665A665E664A663E66062
:1024B000A661A662E6621D46083D244E2E601D1FE1
:1024C0002E6067649F605F629F62276167610B4651
:1024D000303B214C1C600B46403B92071A601F4A60
:1024E0000A601F490A680A2313430B6045225205FC
:1024F0000B6913430B611B490A6A1B4B1A430A629F
:102500000A681A430A6001463039184A0A600146CF
:102510004039174A0A6017490160052040051649ED
:102520000A6802430A600869144A02430A611448AF
:10253000016A144A11430162016811430160F0BD50
:102540000C804240D0120A40D0320A408100040080
:102550008480424081000C0080B0010080B00140C6
:1025600090130A4028100A400300002CB082810614
:1025700003004000B382C10690330A408008800007
:1025800028300A40000C280880B508480849FEF7A2
:102590008CF90320400207490A6802430A600120BF
:1025A00000020A6802430A6080BDC04600000F4076
:1025B0001C4B000000120F40F0B583B02E4C2F4989
:1025C0002046FEF723FB2E492046FEF701FA0025A0
:1025D0000095204629462A462B46FEF703FB204657
:1025E00029462A46FEF7F0FA7D20C60020463146ED
:1025F0002A46FEF703FB01270097204629462A4674
:102600002B46FEF7EFFA204629463A460297FEF798
:10261000DBFA2046314634463A46FEF7EFFA022608
:102620000096154F384629462A462B46FEF7DAFA19
:10263000384629463246FEF7C7FA38462146324622
:10264000FEF7DCFA03260096384629462A462B4632
:10265000FEF7C8FA384629463246FEF7B5FA38463C
:1026600021463246FEF7CAFA0648029981600F21D8
:10267000016003B0F0BDC046000086401E4B000064
:10268000244B00000011864010B5084C0849204634
:10269000FEF7BCFA07492046FEF71EFA0648016815
:1026A0000122114301600548026010BD00A0864070
:1026B0002C4B0000304B000028B0864008B186400B
:1026C000B0B582B0104C11492046FEF79FFA104970
:1026D0002046FEF77DF900250095204629462A462A
:1026E0002B46FEF77FFA204629462A46FEF76CFA6B
:1026F0007D20810020462A46FEF780FA0548012108
:102700008160016002B0B0BD00208640444B0000F3
:10271000484B00000031864070B582B0114C124920
:102720002046FEF773FA11492046FEF751F90125BC
:10273000009500262046314632463346FEF752FACF
:10274000204631462A46FEF73FFA7D20810020468A
:102750002A46FEF753FA064885600221016002B05E
:1027600070BDC04600808640504B0000544B0000B6
:10277000009186400D48002101600320C1430C48B0
:10278000021F13680B4013604168012291434160AE
:10279000110242688A43426001683022914301601D
:1027A00001680F22914301607047C04608030B4047
:1027B00004010B4010B5064C06492046FEF726FAE8
:1027C00005492046FEF784F804480121016010BD48
:1027D000000087406C4B00005C4B000008118740F4
:1027E00080B500F025F8FFF71FFEFFF7C3FFFFF7E6
:1027F000E3FEFFF765FFFFF78FFFFFF7DBFFFFF754
:1028000043FFFFF7C1FEB820054900220A540549DD
:102810000A549C2004490A5404490A5480BDC04605
:1028200044062020E804202000072020A4052020C2
:10283000F0B581B010481149416011484160114B19
:102840005960114C6160114D6960114E7160114FFA
:102850007960114841601149074A1160084A1160C6
:102860001960216029603160396001601020FEF735
:1028700001F801B0F0BDC04600080A40030000B1F5
:1028800000280A40000886400028864000888640CC
:102890000008874000A8864000080F40010000267D
:1028A000F0B581B004460127F90340B2414E00283B
:1028B000009101D4316100E031600A25284600F022
:1028C000F8F83F043760284600F0F3F837616006F7
:1028D00002D40098306101E0009830600A25284653
:1028E00000F0E7F83760284600F0E3F83761A0060B
:1028F00002D40098306101E0009830600A25284633
:1029000000F0D7F83760284600F0D3F83761E006CA
:1029100002D40098306101E0009830600A25284612
:1029200000F0C7F83760284600F0C3F83761200789
:1029300002D40098306101E0009830600A252846F2
:1029400000F0B7F83760284600F0B3F83761600749
:1029500002D40098306101E0009830600A252846D2
:1029600000F0A7F83760284600F0A3F83761A00709
:1029700002D40098306101E0009830600A252846B2
:1029800000F097F83760284600F093F83761E007C9
:1029900002D10098306101E0009830600A2420469E
:1029A00000F087F83760204600F083F8376101B007
:1029B000F0BDC04690120A4080B505480168C9B212
:1029C000012903D101218162FEF75AFC80BDC04676
:1029D00020B08640F0B581B0304E30680124A0436D
:1029E00030600020C043706030682043306065066E
:1029F0001C4F3D600A2000F05CF83D6124051A4D33
:102A00002868C0020BD4194F012000F052F87F1C37
:102A10002868204201D1002FF6D1002F1FD0371F88
:102A20003968286820420DD00091124E012000F034
:102A300040F8761C2868204201D0002EF6D1002EE6
:102A400000990CD03868081AFDF7C0FD7D21C90532
:102A500000F07AFA084900F077FA01B0F0BD0448B6
:102A600001B0F0BD90320A4080330A4030F8FFFFD9
:102A7000000080BF906BFFFF96438B3C0120410616
:102A8000054A11600021CA43044B5A601A68024388
:102A90001A60034801707047A0320A40041887404A
:102AA000C407202080B57D2109024843FDF7E2FEDE
:102AB00080BD80B54001FDF7DDFE80BD84B0FFF72D
:102AC0008FFEFEF733FFFEF7B1FC012600960024CF
:102AD0003AA21025204621462B46FFF72DFCFEF793
:102AE000F9FAFDF72BFEFEF7F5F9FFF7C7FFFEF742
:102AF000D7F9FDF7B9FEFDF737FE6420FDF7AAFE12
:102B0000FEF794FC009630A2204621462B46FFF7A4
:102B100013FC304C304FFDF741FE0020FDF718FE4E
:102B2000002805D00020FEF7C7F93220FDF792FEFD
:102B300001263046FDF70CFE002802D00120FEF7EA
:102B4000BBF9FEF739FAFFF745FF05462068401C40
:102B5000206078430521C84120498842DBD800968F
:102B6000002003900224082721461DA23B46FFF7C0
:102B7000E3FB2846FDF7E6FC024600970196282075
:102B8000029003232146FFF773FB00960424039D64
:102B90002846214614A23B46FFF7CEFB2846FEF707
:102BA0008DFA024600970C4F0196072302982146A2
:102BB000084CFFF75DFBFFF7A9F9ACE74361722012
:102BC000496E69742E2E2E00436172205265616435
:102BD000792100000C092020917EFB3ADC4603009D
:102BE000446973743A000000454E4320413A0000A6
:102BF00043088B421AD3002203098B4279D3030A7C
:102C00008B425ED3030B8B4242D3030C8B4227D300
:102C10000902FF2212BA030C8B4202D312120902DC
:102C200003D0030B8B4233D31AE0D3E0411A804127
:102C3000401C704703460B4371D443088B42F5D3C5
:102C4000002203098B4254D3030A8B4239D3030B6E
:102C50008B421DD3030C8B4202D394466EE0090ACB
:102C6000C30B8B4201D3CB03C01A5241830B8B425F
:102C700001D38B03C01A5241430B8B4201D34B0348
:102C8000C01A5241030B8B4201D30B03C01A5241AD
:102C9000C30A8B4201D3CB02C01A5241830A8B4232
:102CA00001D38B02C01A5241430A8B4201D34B021B
:102CB000C01A5241030A8B4201D30B02C01A52417F
:102CC000CDD2C3098B4201D3CB01C01A5241830933
:102CD0008B4201D38B01C01A524143098B4201D36D
:102CE0004B01C01A524103098B4201D30B01C01A98
:102CF0005241C3088B4201D3CB00C01A5241830812
:102D00008B4201D38B00C01A524143088B4201D33E
:102D10004B00C01A5241411A524110007047CA0F6D
:102D200000D04942031000D34042534000229C4649
:102D300003098B422DD3030A8B4212D38901FC2253
:102D400012BA030A8B420CD3890192118B4208D329
:102D5000890192118B4204D3890137D0921100E08E
:102D60008909C3098B4201D3CB01C01A524183099F
:102D70008B4201D38B01C01A524143098B4201D3CC
:102D80004B01C01A524103098B4201D30B01C01AF7
:102D90005241C3088B4201D3CB00C01A5241830871
:102DA0008B4201D38B00C01A5241D9D243088B42C7
:102DB00001D34B00C01A5241411A00D20146524180
:102DC000104663465B1000D34042704763465B1079
:102DD00000D3404201B50021004201D0C94308465A
:102DE000C046C04602BD10B500F05AF8EFF30080AF
:102DF0004000800F012800D0002010BD10B500F069
:102E000079F8EFF30080800001D4012010BD00208C
:102E100010BD000070B50125ED0704004C4020D422
:102E2000441A01D2001B0919C60D4B00F2B2FF2A49
:102E300029D01B0E2CD000020C0228432C43D31A9D
:102E4000DC40051910D2280A02D3401C6D0611D0AF
:102E5000761EF6058019FF2A00DA70BDC00DC00588
:102E600070BD694000F0CEF801200543C541521CF9
:102E7000761CE8E764089C40C90161408900E7D1FD
:102E80000124A043E4E71B0E440200D0034870BDB8
:102E9000002AFCD1C00FC00770BD00BF0000C07F7A
:102EA0000123DB0502000A430DD4DA4203D49A421F
:102EB00007D488427047D84214D4D94212D48842E9
:102EC000704780427047DA4203D59A42F9D5814271
:102ED00070475B004200DA4204D24A00DA4201D273
:102EE0008142704710B5024AFDF774FB10BD00BF68
:102EF000090013040123DB0502000A430DD4DA4262
:102F000003D49A4207D488427047D84214D4D94295
:102F100012D48842704780427047DA4203D59A4201
:102F2000F9D5814270475B004200DA4204D24A0080
:102F3000DA4201D28142704710B5024AFDF74AFBDE
:102F400010BD00BF0900160470B5420064414B007B
:102F50005C41120E39D01B0E38D0FF2A3CD0FF2B1B
:102F60003AD0D2187F3A40024902400A490A45182D
:102F7000ED0106004E43000A090A48430104731A92
:102F80004019190C4318990F04D05B080121490717
:102F90005B1A521CD80904D3401CF50301D19D06CD
:102FA00007D0FF2A08D2D50506D0E40720434019F0
:102FB00070BD0125A843F4E7002A01DCE00770BDDD
:102FC0002402FF202043C00570BD1B0EFF2A03D042
:102FD000FF2B01D0E00770BDFF2636064500B54245
:102FE00006D84D00B54203D8D218FF2A00D0E7E733
:102FF000004870BD0000C07F70B50125ED070400DA
:103000004C4022D4441A02D26C40001B0919C60D50
:103010004B00F2B2FF2A4BD01B0E50D000020C0224
:10302000A8432C43D31ADC40051B05D5AD0019D3AA
:103030006D08761E521E37D0F605280A01D2801977
:1030400070BD70416D0603D070BD6940FFF7E8FEAA
:103050009C4009026140490001D0401E70BD01241E
:10306000A04370BD6D081DD001202B0C01D12D0493
:1030700010302B0E01D12D0208302B0F01D12D0164
:10308000001DAB0F01D1AD00801CEB0F01D16D0015
:10309000401C361A121A6D00680AF5054019012AFB
:1030A00002DB70BD002070BDC036300AC00770BDA5
:1030B0001B0E440201D1FF2B00D1024870BD002A33
:1030C000F0D070BD0000C07F8182838485868788B0
:1030D000898B8C8D8E8F919293959697999A9C9DC2
:1030E0009FA0A2A3A5A7A8AAACAEB0B2B3B5B7B92A
:1030F000BCBEC0C2C5C7C9CCCED1D4D7D9DCDFE2F3
:10310000E6E9ECF0F3F7FAFE000000000200000030
:10311000000000000000000000000000002F000080
:1031200000000700070000147F147F1400242A7F8A
:103130002A12006264081323003649552250000009
:103140000503000000001C224100000041221C0079
:103150000014083E08140008083E0808000000A0FB
:1031600060000008080808080000606000000020F7
:1031700010080402003E5149453E0000427F4000D5
:10318000004261514946002141454B31001814125B
:103190007F10002745454539003C4A494930000128
:1031A0007109050300364949493600064949291E77
:1031B00000003636000000005636000000081422D9
:1031C00041000014141414140000412214080002D9
:1031D0000151090600324959513E007C1211127CFE
:1031E000007F49494936003E41414122007F41412B
:1031F000221C007F49494941007F09090901003E1D
:103200004149497A007F0808087F0000417F41005A
:10321000002040413F01007F08142241007F4040D0
:103220004040007F020C027F007F0408107F003EB8
:103230004141413E007F09090906003E4151215E9E
:10324000007F091929460046494949310001017F9B
:103250000101003F4040403F001F2040201F003F31
:103260004038403F006314081463000708700807E3
:1032700000615149454300007F41410000552A55F6
:103280002A55000041417F00000402010204004071
:103290004040404000000102040000205454547893
:1032A000007F4844443800384444442000384444B3
:1032B000487F00385454541800087E090102001851
:1032C000A4A4A47C007F080404780000447D40008E
:1032D000004080847D00007F102844000000417F72
:1032E0004000007C04180478007C0804047800384E
:1032F0004444443800FC242424180018242418FCD6
:10330000007C0804040800485454542000043F443E
:103310004020003C4040207C001C2040201C003C01
:103320004030403C004428102844001CA0A0A07C51
:10333000004464544C441414141414140000000089
:1033400000000000000000000000FC000000000081
:1033500002000000000C020C02000000000000004F
:1033600090D0BCD0BC900003000300001824FE44A1
:103370008C000302070201001824D8B04C8000031F
:1033800000010201C038E438E0000102020102023B
:10339000080600000000000000000000000000F827
:1033A0000402000000010204000204F8000000040E
:1033B000020100009060F860900000000100000031
:1033C0002020FC2020000000010000000000000080
:1033D000000008060000000020202020200000003F
:1033E00000000000000000000000000200000000DB
:1033F0000080601C0200040300000000F8040404C4
:10340000F8000102020201000008FC0000000002B6
:103410000302000018844424180003020202020080
:1034200008042424D80001020202010040B088FCF4
:1034300080000000000302003C242424C400010298
:1034400002020100F824242CC00001020202010043
:103450000C04E41C0400000003000000D824242411
:10346000D80001020202010038444444F80000037D
:103470000202010000001000000000000200000035
:10348000000020000000000006000000002050881E
:103490000402000000000102909090909000000053
:1034A000000000000002048850200002010000001B
:1034B0001804C4241800000002000000F804E4947A
:1034C000F80001020202020000E09CF0800002030A
:1034D0000000030204FC2424D800020302020100BD
:1034E000F80404040C0001020202010004FC0404BC
:1034F000F80002030202010004FC24740C00020321
:103500000202030004FC24740C0002030200000009
:10351000F0080444CC4000010202010004FC202019
:10352000FC040203000003020404FC040400020281
:1035300003020200000404FC040406040403000067
:1035400004FC24D00C0402030200030204FC040067
:103550000000020302020203FC3CC03CFC0003002A
:103560000300030004FC30C4FC0402030200030057
:10357000F8040404F80001020202010004FC2424FF
:103580001800020302000000F8848404F80001021D
:103590000207050004FC24649800020302000302F1
:1035A000182424448C000302020201000C04FC04D1
:1035B0000C0000020302000004FC0000FC040001F7
:1035C00002020100047C80E01C04000003000000F3
:1035D0001CE03CE01C00000300030000049C609C15
:1035E0000400020300030200041CE01C04000002AB
:1035F000030200000C84641C0400020302020300A6
:103600000000FE020200000007040400000E30C0AB
:103610000000000000010200000202FE00000004A1
:103620000407000000040204000000000000000085
:103630000000000000000808080808080000020058
:1036400000000000000000000040A0A0C000000139
:103650000202030204FC2020C00000030202010059
:1036600000C02020600000010202020000C02024EF
:10367000FC0000010202030200C0A0A0C000000183
:10368000020202000020F8242404000203020200C7
:103690000040A0A0602000070A0A0A0404FC2020C1
:1036A000C0000203020003020020E4000000000248
:1036B00003020000000020E40000080808070000E2
:1036C00004FC80E020200203020003020404FC004A
:1036D0000000020203020200E020E020C00003001C
:1036E0000300030020E02020C000020302000302C8
:1036F00000C02020C00000010202010020E02020C4
:10370000C000080F0A02010000C02020E0000001F4
:10371000020A0F0820E040202000020302000000FF
:103720000060A0A020000002020203000020F82098
:10373000000000000102020020E00020E000000183
:103740000202030220E0208060200000030100004C
:103750006080E08060000003000300002060806063
:10376000200002030003020020E0208060200808FF
:10377000070100000020A0602000000203020200F8
:10378000000020DE0200000000070400000000FF2F
:1037900000000000000F00000002DE200000000416
:1037A0000700000002010204040200000000000003
:1037B0000000000000000000000000000000000009
:1037C000000000F80000000000000033300000009E
:1037D00000100C06100C06000000000000000000A5
:1037E00040C07840C0784000043F04043F04040017
:1037F000007088FC08300000001820FF211E000027
:10380000F008F000E018000000211C031E211E003B
:1038100000F00888700000001E21232419272110C1
:1038200010160E0000000000000000000000000064
:10383000000000E01804020000000007182040000B
:1038400000020418E00000000040201807000000FB
:10385000404080F0804040000202010F010202005F
:10386000000000F0000000000101011F0101010043
:10387000000000000000000080B0700000000000A8
:103880000000000000000000000101010101010131
:1038900000000000000000000030300000000000C8
:1038A000000000008060180400601806010000009D
:1038B00000E010080810E000000F102020100F009A
:1038C000001010F8000000000020203F2020000021
:1038D0000070080808887000003028242221300079
:1038E00000300888884830000018202020110E0081
:1038F0000000C02010F8000000070424243F24002A
:1039000000F80888880808000019212020110E00FE
:1039100000E0108888180000000F112020110E0010
:1039200000380808C83808000000003F0000000008
:103930000070880808887000001C222121221C00C9
:1039400000E010080810E0000000312222110F00F2
:10395000000000C0C0000000000000303000000087
:1039600000000080000000000000806000000000F7
:103970000000804020100800000102040810200010
:10398000404040404040400004040404040404005B
:1039900000081020408000000020100804020100F0
:1039A000007048080808F0000000003036010000F0
:1039B000C030C828E810E0000718272423140B00A3
:1039C0000000C038E0000000203C2302022738201D
:1039D00008F8888888700000203F202020110E0001
:1039E000C0300808080838000718202020100800F8
:1039F00008F808080810E000203F202020100F00E1
:103A000008F88888E8081000203F202023201800AC
:103A100008F88888E8081000203F20000300000014
:103A2000C03008080838000007182020221E0200B5
:103A300008F808000008F808203F210101213F2074
:103A4000000808F8080800000020203F202000009F
:103A500000000808F8080800C08080807F0000008F
:103A600008F888C028180800203F200126382000C8
:103A700008F8080000000000203F2020202030002F
:103A800008F8F800F8F80800203F003F003F200049
:103A900008F830C00008F808203F200007183F0051
:103AA000E01008080810E0000F10202020100F0080
:103AB00008F808080808F000203F21010101000073
:103AC000E01008080810E0000F18242438504F00B8
:103AD00008F8888888887000203F2000030C302078
:103AE00000708808080838000038202121221C00B6
:103AF000180808F8080818000000203F20000000FF
:103B000008F808000008F808001F202020201F00E7
:103B10000878880000C83808000007380E01000047
:103B2000F80800F80008F800033C0700073C030011
:103B3000081868808068180820302C03032C302077
:103B40000838C800C83808000000203F20000000E6
:103B500010080808C838080020382621202018003E
:103B6000000000FE020202000000007F4040400012
:103B7000000C30C000000000000000010638C0004A
:103B800000020202FE000000004040407F000000F2
:103B90000000040202020400000000000000000017
:103BA0000000000000000000808080808080808015
:103BB00000020204000000000000000000000000FD
:103BC00000008080808000000019242222223F20F3
:103BD00008F8008080000000003F112020110E0036
:103BE0000000008080800000000E112020201100C5
:103BF000000000808088F800000E112020103F2077
:103C00000000808080800000001F222222221300FA
:103C1000008080F0888888180020203F2020000045
:103C20000000808080808000006B949494936000FA
:103C300008F8008080800000203F210000203F2005
:103C400000809898000000000020203F2020000005
:103C5000000000809898000000C08080807F0000F5
:103C600008F8000080808000203F24022D302000D2
:103C7000000808F8000000000020203F202000007D
:103C80008080808080808000203F20003F20003F97
:103C90008080008080800000203F210000203F20A5
:103CA0000000808080800000001F202020201F0056
:103CB000808000808000000080FFA12020110E0085
:103CC0000000008080808000000E112020A0FF8076
:103CD000808080008080800020203F212000010023
:103CE0000000808080808000003324242424190078
:103CF000008080E0808000000000001F2020000085
:103D00008080000000808000001F202020103F20C5
:103D1000808080000080808000010E300806010055
:103D200080800080008080800F300C030C300F00FA
:103D300000808000808080000020312E0E31200025
:103D4000808080000080808080818E701806010055
:103D500000808080808080000021302C2221300073
:103D600000000000807C020200000000003F404094
:103D700000000000FF00000000000000FF00000045
:103D80000002027C800000000040403F0000000074
:103D9000000601010202040400000000000000000F
:103DA0000000000000000000000000000000000013
:103DB0000000000000000000000000000000000003
:103DC000000000000000000000F0F0F00000000023
:103DD0000000000000017F01000000000000000062
:103DE000001C1C1C0000000000008060301C8C6067
:103DF000301C0C000000000000000000000000006B
:103E0000000000000000000000000000000000E0D2
:103E10000000000000E000000086E69F868686869F
:103E2000E69F860000011F01010101011F01010041
:103E3000000080C06020F820E0C000000000030700
:103E40000C18FF70E18100000000070F10107F10B8
:103E50000F0700008060206080000000E02000006C
:103E60000F3020309F70DC371030C0000000100E83
:103E700003000718101807000000C02020E0C00051
:103E80000000000080E01F38E88703C43C04000005
:103E9000070F1810100B070D1010080000808C4C35
:103EA00038000000000000000000000000000000DA
:103EB0000000000000000000000000000000000002
:103EC00000000000000080E0300804000000000056
:103ED00000FEFF0100000000000000000000030FD2
:103EE0001820400000040830E080000000000000BE
:103EF0000000000001FFFE0000000000004020184C
:103F00000F03000000000000000000000000C000DF
:103F100000000000004266663C18FF183C666642DE
:103F2000000000000000030000000000000000008E
:103F30000000800000000000001010101010FF10A2
:103F4000101010100000000000000300000000002E
:103F50000000000000000000000000000000000061
:103F6000000000000000000000808C4C38000000C1
:103F70000000000000000000000000000000000041
:103F80000010101010101010101010000000000091
:103F90000000000000000000000000000000000021
:103FA0000000000000000000000000000000000011
:103FB00000001C1C1C0000000000000000000000AD
:103FC00000000000E0380C000000000080701C03BE
:103FD000000000000060380E01000000000000003A
:103FE000000080C060202060C080000000FEFF0153
:103FF0000000000001FFFE000001070E181010185D
:104000000E0701000000808080C0E000000000007A
:104010000000000000FFFF00000000000000101082
:10402000101F1F1010100000008040202020206072
:10403000C080000000030300804020381F070000FC
:10404000001C1A1918181818181F00000080C0202A
:10405000202060C080000000000303001010182F13
:10406000E780000000070F10101010180F07000065
:10407000000000000000C0E0F000000000C0B088B8
:10408000868180FFFF808000000000000010101F6C
:104090001F1010000000E060606060606060000061
:1040A00000003F1008080818F0E0000000070B109F
:1040B0001010101C0F030000000080C040202020C2
:1040C000E0C0000000FCFF211008080818F0E00024
:1040D0000001070C18101010080F03000000C0E0CA
:1040E0006060606060E06000000003000000E018B5
:1040F0000700000000000000001F1F00000000007B
:104100000080C0602020202060C080000087EF2C4D
:104110001818303068CF830000070F0810101010F7
:10412000180F07000000C0C020202020C080000021
:10413000001F3F604040402010FFFE0000000C1CAC
:10414000101010080F030000000000000000000025
:104150000000000000000000000E0E0E0000000035
:1041600000000000001C1C1C0000000000000000FB
:10417000000000000000000000000000000C0C0027
:10418000000000000000000000583800000000009F
:1041900000000000000000804020100000001028F7
:1041A0004482010000000000000000000000010245
:1041B00004081000000000000000000000000000E3
:1041C00000848484848484848484840000000000C7
:1041D00000000000000000000000102040800000EF
:1041E00000000000000000000000018244281000D0
:1041F00000001008040201000000000000C02020A0
:104200001010101030E0C0000003030000F0100890
:104210000C070300000000001C1C1C000000000034
:10422000000000C0406020202040C00000FCFF01D2
:10423000F00E03C1FE03807F0001070E081111106C
:10424000110904020000000080E0E000000000000E
:104250000000807C4340477FF880000010181F104A
:1042600000000000131F1C1020E0E0202020206030
:10427000C080000000FFFF10101010182FE7800012
:10428000101F1F1010101010180F0700000080C022
:10429000402020202060E00000FCFF010000000022
:1042A000000001000001070E1810101008040300A0
:1042B00020E0E02020202040C080000000FFFF0020
:1042C0000000000001FFFE00101F1F101010180852
:1042D0000E07010020E0E020202020202060800048
:1042E00000FFFF101010107C00000000101F1F10B6
:1042F000101010101018060020E0E02020202020D0
:104300006060800000FFFF101010107C00000100B2
:10431000101F1F100000000000000000000080C0FF
:104320006020202040E0000000FCFF010000404031
:10433000C0C140400001070E181010100F0F000000
:1043400020E0E0200000000020E0E02000FFFF105F
:104350001010101010FFFF00101F1F1000000000B1
:10436000101F1F100000202020E0E020202000006F
:104370000000000000FFFF0000000000000010101F
:10438000101F1F101010000000000000202020E06F
:10439000E020202000000000000000FFFF000000DF
:1043A0000060E0808080C07F3F00000020E0E020CF
:1043B000000020A06020200000FFFF30187CE3C038
:1043C00000000000101F1F10000001131F1C181018
:1043D00020E0E020000000000000000000FFFF00DF
:1043E0000000000000000000101F1F10101010102F
:1043F0001018060020E0E0E000000000E0E0E0200F
:1044000000FF013FFEC0E01E01FFFF00101F100073
:10441000031F0300101F1F1020E0E0C00000000079
:104420000020E02000FF0003071C78E08000FF0070
:10443000101F100000000000030F1F00000080C0CC
:1044400060202060C080000000FEFF01000000002E
:1044500000FFFE000001070E181010180C070100E5
:1044600020E0E0202020202060C0800000FFFF200E
:1044700020202020301F0F00101F1F100000000000
:1044800000000000000080C060202060C0800000AC
:1044900000FEFF010000000000FFFE000001070E0B
:1044A0001111133C7C67210020E0E0202020202017
:1044B00060C0800000FFFF101030F0D0080F070030
:1044C000101F1F10000000030F1C10100080C060A0
:1044D000202020204040E00000070F0C181830304A
:1044E00060E08100001F0C0810101010180F07006A
:1044F0008060202020E0E02020206080010000007B
:1045000000FFFF000000000100000000101F1F104E
:104510000000000020E0E020000000000020E0207B
:1045200000FFFF00000000000000FF0000070F1860
:1045300010101010100807002060E0E020000000BC
:1045400020E060200000077FF88000807C030000EE
:1045500000000000071F1C070000000020E0E02012
:1045600000E0E0200020E0200007FFF8E01FFFFC53
:10457000E01F00000000031F0300011F03000000F4
:10458000002060E0A0000020E060200000000003A8
:104590008F7CF8C6010000000010181E13000117E0
:1045A0001F1810002060E0E02000000020E06020E4
:1045B000000001073EF8E0180700000000000010AE
:1045C000101F1F101000000000806020202020A07D
:1045D000E0E0200000000000C0F03E0F03000000FB
:1045E00000101C1F1710101010180600000000000B
:1045F00000FC0404040404000000000000FF0000AC
:104600000000000000000000007F404040404000EB
:10461000000010E0000000000000000000000000AA
:10462000031C608000000000000000000000000388
:104630000C70800000000404040404FC000000006E
:1046400000000000000000FF0000000000004040EB
:104650004040407F0000000000000010080C040CE7
:104660000810000000000000000000000000000032
:10467000000000000000000000000000000000003A
:10468000000000000000000000000000000000002A
:10469000000000008080808080808080808080801A
:1046A00000000004040808000000000000000000F2
:1046B00000000000000000000000000000000000FA
:1046C00000000000000000000000000000000000EA
:1046D000000098D844642424FCF80000000F1F1840
:1046E000101010081F1F10180020E0F0000000003C
:1046F000000000000000FFFF180804040CF8F000A0
:1047000000001F0F18101010180F03000000000009
:10471000000000000000000000E0F8180404043C61
:104720003800000000030F0C1010101008060000E5
:104730000000000000000020E0F0000000E0F81C95
:1047400004040408FFFF000000030F1810101008F5
:104750001F0F080000000000000000000000000023
:104760000000E0F8484444444C7870000000030F17
:104770000C181010100804000000000080C0602019
:1047800020E0C00000040404FFFF0404040400004F
:10479000000010101F1F101010000000000000008B
:1047A0000000000000000000000070F88C04048C81
:1047B000F874040C007076CF8D8D8D89C8787000E8
:1047C0000020E0F000000000000000000000FFFFFB
:1047D00008040404FCF8000000101F1F1000001063
:1047E0001F1F1000000000000060600000000000BB
:1047F0000000040404FCFC00000000000000101095
:10480000101F1F10101000000000000000000060CA
:104810006000000000000000040404FCFC00000034
:104820000000C0C08080C07F3F0000000020E0F09A
:1048300000000000000000000000FFFF80C0F41C2A
:104840000404000000101F1F1100031F1C101000A3
:104850000000202020E0F000000000000000000028
:1048600000FFFF000000000000001010101F1F10CC
:104870001010000000000000000000000000000018
:1048800004FCFC0804FCFC0804FCFC00101F1F10C6
:10489000001F1F10001F1F1000000000000000007C
:1048A000000000000004FCFC08080404FCF8000000
:1048B00000101F1F100000101F1F1000000000003C
:1048C000000000000000000000E0F0180C04040CE0
:1048D00018F0E00000030F0C101010100C0F030074
:1048E0000000000000000000000000000004FCFCCC
:1048F000080404040CF8F0000080FFFF88901010FA
:104900001C0F030000000000000000000000000079
:1049100000E0F81C04040408F8FC000000030F1871
:1049200010109088FFFF80000000000000000000D1
:1049300000000000040404FCFC100804040C0C003B
:104940001010101F1F1010100000000000000000C9
:10495000000000000000000000003078CCC4848417
:10496000840C1C0000001E1810101011190F0600F6
:104970000000000000C0000000000000000404046B
:10498000FFFF040404000000000000000F1F1010CF
:10499000100C0000000000000000000000000000FB
:1049A0000004FCFE00000004FCFE000000000F1FDD
:1049B000181010081F0F0800000000000000000081
:1049C0000000000000040C3CFCC40000C43C0C04CB
:1049D00000000000010F1E0E01000000000000009A
:1049E0000000000000000000043CFCC400E47CFC6B
:1049F00084807C040000071F070000071F070000D9
:104A00000000000000000000000000000004041C82
:104A10007CE4C0341C0404000010101C1601131F99
:104A20001C18100000000000000000000000000042
:104A300000040C3CFCC400C43C0404000000C08022
:104A4000C1370E010000000000000000000000005F
:104A50000000000000001C0404C4F47C1C040000DE
:104A60000000101C1F17111010180E00000000008D
:104A7000000000F80C04000000000000001028EF07
:104A800000000000000000000000003F6040000047
:104A9000000000000000FF00000000000000000017
:104AA0000000FF0000000000000000000000FF0008
:104AB000000000000000040CF800000000000000EE
:104AC00000000000EF28100000000000000040601F
:104AD0003F00000000000000001806020204081059
:104AE000202030080000000000000000000000004E
:104AF00000000000000000000000000000200A404C
:104B00000000400000000A400000004000200A4071
:104B10000100000000200A40020000000800080711
:104B200003000000E8030000000101000807030083
:104B3000000000000F27000000000000000000003F
:104B40000000000008076300E80300000001000007
:104B500008076300E80300000000000000000000F8
:104B6000FF700200000100000000000008070000C4
:104B7000904B000000002020080000000801000009
:104B8000984B000008002020080A000028010000BF
:084B9000050000000000000018
:04000005000000C136
:00000001FF
